S01700004763634170706C69636174696F6E322E737265635A
S11300000C942A000C943F000C943F000C943F0085
S11300100C943F000C943F000C943F000C943F0060
S11300200C943F000C943F000C943F000C943F0050
S11300300C943F000C943F000C943F000C943F0040
S11300400C943F000C943F000C943F000C943F0030
S11300500C943F0011241FBECFE5D8E0DEBFCDBF16
S113006010E0A0E6B0E0E4E1F9E002C005900D92F2
S1130070A037B107D9F70E9468000C9488040C9447
S11300800000CF93DF93CDB7DEB727970FB6F89470
S1130090DEBF0FBECDBF0E94C0000E94EE0082E30F
S11300A090E00E946A00CE0101960E943201CE01C6
S11300B001960E94410188EE93E00E946A00CE01FD
S11300C001960E941B01CE0101960E944101F3CFCB
S11300D00E94410023E023BF09C083E882BF88B7A0
S11300E0816088BF08B600FEFDCFC9019C01215084
S11300F03109892B91F713BE0895882321F088B321
S1130100816088BB03C088B38E7F88BB88B382605C
S113011088BB11BA80B388B3846088BB0000000038
S1130120000011BA80B398B39B7F98BB08956623EF
S113013021F098B3916098BB03C098B39E7F98BB9D
S113014098B39D7F98BB82BB8FEF81BB88B38460DB
S113015088BB00000000000088B38B7F88BB089533
S1130160CF93DF93C82FD62F80E00E947D00882391
S1130170DCF36D2F8C2F0E949700DF91CF910895AF
S113018087B3816087BB87B3826087BB87B3846092
S113019087BB80E190E00E946A0060E080E30E94F7
S11301A0970085E090E00E946A0060E080E30E948E
S11301B0970081E090E00E946A0060E08CE30E9476
S11301C0B00060E08CE00E94B00060E086E00E9435
S11301D0B00060E081E00E94B000089560E081E03A
S11301E00E94B0000895CF93DF93C62F98E2899FB1
S11301F0C00D112460E082E00E94B00005C060E000
S113020084E10E94B000CD2FDFEFDC0FC111F7CFE6
S1130210DF91CF910895CF93DF93FC0104C061E097
S11302200E94B000FE01EF01219680818111F7CF79
S1130230DF91CF910895FC0196819F5F96839C3353
S113024081F485818F5F858316828C3351F4848198
S11302508F5F84831582883121F483818F5F838348
S113026014820895FC0188EE97E09183808385E0F1
S1130270828386E083838DE084838EE28583168285
S11302800895CF92DF92EF92FF920F931F93CF9333
S1130290DF93CDB7DEB761970FB6F894DEBF0FBE1C
S11302A0CDBF8C0160E080E00E94F300F8019381EF
S11302B082811F929F931F928F9381818F9380815C
S11302C08F930F2EF0E6CF2EF0E0DF2EF02DDF928D
S11302D0CF92CE0101967C019F938F930E949E0141
S11302E0C7010E940B0160E081E00E94F300F80165
S11302F02681958184811F922F931F929F931F9231
S11303008F93DF92CF92FF92EF920E949E01C701DA
S11303100E940B010FB6F894DEBF0FBECDBF6196ED
S11303200FB6F894DEBF0FBECDBFDF91CF911F9102
S11303300F91FF90EF90DF90CF900895AEE0B0E082
S1130340E4EAF1E00C945F040D891E8986E08C8355
S11303501A8309838FEF9FE79E838D83AE01475EE7
S11303605F4F6F89788DCE0101960E94C001EF81A5
S1130370F885E00FF11F10822E96E4E00C947B04C4
S1130380ABE0B0E0E6ECF1E00C9451046C017B01CD
S11303908A01FC0117821682838181FFCCC1CE01C0
S11303A001963C01F6019381F70193FD859193FF3A
S11303B081917F01882309F4BAC1853239F493FD10
S11303C0859193FF81917F01853229F4B60190E0F4
S11303D00E94B703E7CF912C212C312CFFE1F315B8
S11303E0D8F08B3279F038F4803279F08332A1F48A
S11303F0232D20611DC08D3261F0803369F4232DDB
S1130400216016C0832D8260382EE32DE4603E2ED9
S11304102AC0F32DF8601DC037FC2DC020ED280F35
S11304202A3040F08E32B9F436FC81C1232D206489
S1130430322E19C036FE06C08AE0989E200D112483
S1130440922E11C0EAE02E9E200D1124222EF32DAF
S1130450F0623F2E08C08C3621F4832D8068382E3C
S113046002C0883641F4F70193FD859193FF819191
S11304707F018111B3CF982F9F7D9554933028F439
S11304800C5F1F4F9FE399830DC0833631F0833790
S113049071F0833509F059C021C0F8018081898346
S11304A00E5F1F4F88248394912C530113C028019D
S11304B0F2E04F0E511CF801A080B18036FE03C05B
S11304C0692D70E002C06FEF7FEFC5010E94AC039D
S11304D04C018201F32DFF773F2E16C0280122E044
S11304E0420E511CF801A080B18036FE03C0692D74
S11304F070E002C06FEF7FEFC5010E94A1034C01C1
S1130500F32DF0683F2E820133FC1BC0822D90E056
S113051088169906B0F4B60180E290E00E94B70311
S11305202A94F4CFF50137FC859137FE81915F0160
S1130530B60190E00E94B70321102A9421E0821AA8
S113054091088114910471F7E8C0843611F089365A
S113055041F5F80137FE07C0608171818281938182
S11305600C5F1F4F08C060817181072E000C880B3F
S1130570990B0E5F1F4FF32DFF763F2E97FF09C097
S113058090958095709561957F4F8F4F9F4FF06840
S11305903F2E2AE030E0A3010E94F303882E861840
S11305A045C0853731F4232D2F7EB22E2AE030E06A
S11305B025C0932D997FB92E8F36C1F018F4883554
S11305C079F0B5C0803719F0883721F0B0C0E92F31
S11305D0E061BE2EB4FE0DC0FB2DF460BF2E09C039
S11305E034FE0AC0292F2660B22E06C028E030E06F
S11305F005C020E130E002C020E132E0F801B7FE9E
S113060007C060817181828193810C5F1F4F06C096
S11306106081718180E090E00E5F1F4FA3010E9412
S1130620F303882E8618FB2DFF773F2E36FE0DC070
S1130630232D2E7FA22E891458F434FE0BC032FCD5
S113064009C0832D8E7EA82E05C0B82CA32C03C010
S1130650B82C01C0B92CA4FE0FC0FE01E80DF11D99
S11306608081803321F49A2D997EA92E09C0A2FE9F
S113067006C0B394B39404C08A2D867809F0B39469
S1130680A3FC11C0A0FE06C0B21488F4280C922C5E
S11306909B180EC0B21460F4B60180E290E00E9490
S11306A0B703B394F7CFB21418F42B1802C0982CE4
S11306B0212CA4FE10C0B60180E390E00E94B70391
S11306C0A2FE17C0A1FC03C088E790E002C088E541
S11306D090E0B6010CC08A2D867859F0A1FE02C0C4
S11306E08BE201C080E2A7FC8DE2B60190E00E949B
S11306F0B703891438F4B60180E390E00E94B7038D
S11307009A94F7CF8A94F301E80DF11D8081B60124
S113071090E00E94B7038110F5CF222009F442CE65
S1130720B60180E290E00E94B7032A94F6CFF60166
S11307308681978102C08FEF9FEF2B96E2E10C94A4
S11307406D04FC010590615070400110D8F780954C
S113075090958E0F9F1F0895FC0161507040019089
S11307600110D8F7809590958E0F9F1F08950F93D1
S11307701F93CF93DF93FB01238121FD03C08FEFF0
S11307809FEF2CC022FF16C04681578124813581FA
S11307904217530744F4A081B1819D012F5F3F4F5D
S11307A0318320838C93268137812F5F3F4F37839A
S11307B0268314C08B01EC01FB010084F185E02D3C
S11307C00995892BE1F6D80116968D919C9117977E
S11307D0019617969C938E931697CE01DF91CF9135
S11307E01F910F910895FA01AA27283051F1203161
S11307F081F1E8946F936E7F6E5F7F4F8F4F9F4FB1
S1130800AF4FB1E03ED0B4E03CD0670F781F891FF2
S11308109A1FA11D680F791F8A1F911DA11D6A0FC0
S1130820711D811D911DA11D20D009F468943F9173
S11308302AE0269F11243019305D3193DEF6CF0172
S11308400895462F4770405D4193B3E00FD0C9F738
S1130850F6CF462F4F70405D4A3318F0495D31FDA5
S11308604052419302D0A9F7EACFB4E0A6959795F8
S1130870879577956795BA95C9F7009761057105CE
S113088008959B01AC010A2E069457954795379518
S11308902795BA95C9F7620F731F841F951FA01D72
S11308A008952F923F924F925F926F927F928F9210
S11308B09F92AF92BF92CF92DF92EF92FF920F93EB
S11308C01F93CF93DF93CDB7DEB7CA1BDB0B0FB6F5
S11308D0F894DEBF0FBECDBF09942A8839884888B2
S11308E05F846E847D848C849B84AA84B984C88448
S11308F0DF80EE80FD800C811B81AA81B981CE0F3F
S1130900D11D0FB6F894DEBF0FBECDBFED01089523
S1070910F894FFCF85
S1130914253034642D253032642D253032640000B2
S9030000FC
