S01700004763634170706C69636174696F6E322E737265635A
S11300000C942A000C943F000C943F000C943F0085
S11300100C943F000C943F000C943F000C943F0060
S11300200C943F000C943F000C943F000C943F0050
S11300300C943F000C943F000C943F000C943F0040
S11300400C943F000C943F000C943F000C943F0030
S11300500C943F0011241FBECFE5D8E0DEBFCDBF16
S113006010E0A0E6B0E0EEE8F1E002C005900D92E9
S1130070A036B107D9F70E9451000C94C5000C9426
S1130080000082E087BB18BA02C082E088BB63E04C
S113009070E083E090E00E948A00892BB1F718BADF
S11300A0F6CF0E944100FC01408121E030E002C013
S11300B0220F331F6A95E2F7242B20830895FC0155
S11300C0908121E030E002C0220F331F6A95E2F7ED
S11300D0209529232083089521E030E002C0220FD7
S11300E0331F6A95E2F7FC0180818223089523E09F
S11300F023BF09C083E882BF88B7816088BF08B680
S113010000FEFDCFC9019C0121503109892B91F7D3
S113011013BE08950F931F93CF93DF931ABA1BBA9C
S113012003E010E0E801C81BD90B061B170B602F76
S11301308AE390E00E945300602F8BE390E00E94DA
S11301405F00CC5F6C2F8AE390E00E945F006C2F0D
S11301508BE390E00E9453008AE090E00E947700D5
S11301606C2F89E390E00E946C00811107C08AE043
S113017090E00E94770081E090E002C080E090E08F
S1110180DF91CF911F910F910895F894FFCF56
S9030000FC
