S01700004763634170706C69636174696F6E322E737265635A
S11300000C942A000C9434000C9434000C943400A6
S11300100C9434000C9434000C9434000C9434008C
S11300200C9434000C9434000C9434000C9434007C
S11300300C9434000C9434000C9434000C9434006C
S11300400C9434000C9434000C9434000C9434005C
S11300500C94340011241FBECFE5D8E0DEBFCDBF21
S11300600E9436000C94A8000C94000082E087BB28
S113007018BA02C082E088BB63E070E083E090E0DD
S11300800E947D00892BB1F718BAF6CFFC0140819C
S113009021E030E002C0220F331F6A95E2F7242BDF
S11300A020830895FC01908121E030E002C0220FFA
S11300B0331F6A95E2F7209529232083089521E0D0
S11300C030E002C0220F331F6A95E2F7FC01808101
S11300D08223089523E023BF09C083E882BF88B741
S11300E0816088BF08B600FEFDCFC9019C01215084
S11300F03109892B91F713BE0895CF93DF932FE035
S11301002ABB1BBA23E030E0E901C81BD90BC901A3
S1130110861B970BBC018BE390E00E945200CC5FDE
S11301206C2F8BE390E00E94460081E090E00E94F7
S11301306A006C2F89E390E00E945F00811103C084
S113014081E090E002C080E090E0DF91CF910895DB
S1070150F894FFCF4D
S9030000FC
