:100000000C942A000C9434000C9434000C943400AA
:100010000C9434000C9434000C9434000C94340090
:100020000C9434000C9434000C9434000C94340080
:100030000C9434000C9434000C9434000C94340070
:100040000C9434000C9434000C9434000C94340060
:100050000C94340011241FBECFE5D8E0DEBFCDBF25
:100060000E94A5000C94AD000C940000FC0140819E
:1000700021E030E002C0220F331F6A95E2F7242B03
:1000800020830895FC01808121E030E002C0220F2E
:10009000331F6A95E2F791E0232B09F090E0982353
:1000A0009083089521E030E002C0220F331F6A954B
:1000B000E2F7FC01808182230895CF93C62F91E05F
:1000C0009ABB1BBA64E0680F8BE390E00E94420089
:1000D0006C2F8BE390E00E9436001ABA89B36C2F24
:1000E00090E00E945200882319F081E090E002C065
:1000F00080E090E0CF9108950F931F93CF93DF930B
:1001000000E010E018C0BE01C8010E945D00892B0C
:1001100049F0C801880F991F880F991F8C0F9D1FE8
:1001200001960EC0219602C0C0E0D0E0C430D105D7
:1001300054F30F5F1F4F04301105B4F380E090E0DB
:10014000DF91CF911F910F91089581E087BB18BA7D
:0E0150000E947C0082E088BBFBCFF894FFCFBA
:00000001FF
