:100000000C942A000C9447000C9447000C94470071
:100010000C9447000C9447000C9447000C94470044
:100020000C9447000C9447000C9447000C94470034
:100030000C9447000C9447000C9447000C94470024
:100040000C9447000C9447000C9447000C94470014
:100050000C94470011241FBECFE5D8E0DEBFCDBF12
:1000600010E0A0E6B0E0E0E4F1E102C005900D92FE
:10007000A03DB107D9F720E0A0EDB0E001C01D928E
:10008000A13DB207E1F70E9489020C949E080C94EE
:1000900000008091D000811104C081E08093D000E5
:1000A00008951092D0000895CF930E942003C82F86
:1000B00082E390E00E94AC02C33229F0C134A9F778
:1000C0000E944900F2CFCF910895CF92DF92EF9234
:1000D000FF920F931F93CF93DF93E82ED62E042F1A
:1000E00010E0C0E0D0E08AE0C82E1E15F0F40E94B7
:1000F0002003F82E82E390E00E94AC0280ED8F0D89
:100100008A3098F71F5FCC9EC001CD9E900D1124C0
:10011000EC01E097CF0DD11D602F8D2D0E94530370
:100120008F2D0E9467030F5FE0CFCE01DF91CF914B
:100130001F910F91FF90EF90DF90CF9008950F9354
:100140001F93CF93DF932FEF260F2C3050F5D42F32
:10015000C62F8C0147E050E068E770E08C2F0E94CA
:100160009204882321F081E0DF31E0F01AC047E0FB
:1001700050E068E770E08C2F0E949204882321F001
:1001800081E0D03278F00DC0C23059F4C8010E942D
:100190007A04811102C09CE101C09DE181E09D17BC
:1001A00008F480E0DF91CF911F910F910895AF92F5
:1001B000BF92CF92EF92FF920F931F93CF93DF9353
:1001C000CDB7DEB72E970FB6F894DEBF0FBECDBF0A
:1001D0000E944F0360E080E00E94530380E690E0BD
:1001E0000E946A0380ED97E00E94AC0240E060E06C
:1001F00082E00E946500182F42E060E082E00E94E9
:100200006500F82E44E060E082E00E9465005C0139
:100210004F2D612F0E949F008823D1F20E944F032F
:1002200060E080E00E94530389E690E00E946A0348
:1002300080ED97E00E94AC0240E061E082E00E9425
:100240006500E82E42E061E082E00E946500082F30
:1002500044E061E082E00E9465009CE39E15F0F2BC
:100260000931E0F68D33D0F6C82E2F2D412FB50180
:10027000CE0108960E94590487E0FE013896DE01FF
:10028000119601900D928A95E1F729813A814B816F
:100290005C816D817E818F8190E02E960FB6F894FF
:1002A000DEBF0FBECDBFDF91CF911F910F91FF90A9
:1002B000EF90CF90BF90AF9008958F929F92AF92A2
:1002C000CF92EF92FF920F931F93CF93DF93CDB70F
:1002D000DEB760970FB6F894DEBF0FBECDBF0E94A9
:1002E0004F0360E080E00E94530380E690E00E94AC
:1002F0006A0380ED97E00E94AC0240E060E082E09B
:100300000E946500182F42E060E082E00E946500D4
:10031000F82E44E060E082E00E9465004C014F2D21
:10032000612F0E949F008823D1F20E944F0360E05A
:1003300080E00E94530389E690E00E946A0380ED0A
:1003400097E00E94AC0240E061E082E00E9465001C
:10035000E82E42E061E082E00E946500082F44E060
:1003600061E082E00E946500C82E46E061E081E025
:100370000E9465009CE39E15C0F20931B0F69C1501
:10038000A0F2AA24A394811101C0A12C2F2D412FEA
:10039000B401CE0109960E94680488E0FE013996F6
:1003A000DE01119601900D928A95E1F729813A813B
:1003B0004B815C816D817E818F81988560960FB6BF
:1003C000F894DEBF0FBECDBFDF91CF911F910F918B
:1003D000FF90EF90CF90AF909F908F900895CF9324
:1003E000DF93EC010E94CA04CE01DF91CF910C94FF
:1003F0004505CF93DF93EC010E940305CE01DF9109
:10040000CF910C94EA03CF93DF93EC018091D0005D
:1004100081111CC0CE010E94EF010E942003833293
:1004200051F40E94D700288339834A835B836C830D
:100430007D838E8306C0813421F481E08093D000D7
:1004400005C088EE93E00E94AC02E0CFCE01DF91C0
:10045000CF910895CF93DF93EC018091D00081304C
:10046000E1F4CE010E94F9010E942003833259F485
:100470000E945D01288339834A835B836C837D837B
:100480008E839F8305C0813419F41092D00005C07B
:1004900088EE93E00E94AC02E0CFCE01DF91CF91D5
:1004A0000895CF93DF93CDB7DEB72F970FB6F894AB
:1004B000DEBF0FBECDBF0E9454008091D0008130BE
:1004C00019F40E945D011CC00E94D70029873A8759
:1004D0004B875C876D877E878F878091D0008130C6
:1004E00039F4CE0101960E942A020E947703EECFD2
:1004F0008111F3CFCE0109960E9403020E94B3033B
:1005000029833A834B835C836D837E838F839887B3
:10051000E4CF0E94510221E030E001C0220F6A9531
:10052000EAF7FC013081232B2083089521E030E09D
:1005300001C0220F6A95EAF72095FC013081232340
:100540002083089521E030E001C0220F6A95EAF788
:10055000FC0180818223089523E023BF33E80197C3
:1005600040F032BF28B7216028BF08B600FEFDCF9B
:10057000F6CF13BE0895EF92FF920F931F93CF9380
:10058000DF937C011ABA1BBAC3E0D0E08E01061BD0
:10059000170B602F8AE390E00E948B02602F8BE3A1
:1005A00090E00E949602CE19DF09CC5F6C2F8AE39F
:1005B00090E00E9496026C2F8BE390E00E948B02E9
:1005C0008AE090E00E94AC026C2F89E390E00E94E8
:1005D000A202811107C08AE090E00E94AC0281E093
:1005E00090E002C080E090E0DF91CF911F910F91E9
:1005F000FF90EF9008950F931F93CF93DF9300E048
:1006000010E0C0E0D0E0BE01C8010E94BB0200972C
:1006100049F0000F111F000F111FC00FD11FCE0195
:10062000019609C02196C430D10569F70F5F1F4FAD
:100630000430110531F7DF91CF911F910F9108958B
:10064000CF93DF930E94FB02EC0184EF91E00E94C4
:10065000AC02CC0FDD1FC458DF4F8881DF91CF91F2
:100660000895662311F0C09A01C0C098C19882BB5A
:100670008FEF81BBC29A000000000000C29808956D
:10068000C098C19A11BA90B3C29A0000000000004D
:1006900011BA90B3C29897FDF3CF0C94310360E088
:1006A00081E00C944003CF93C62F98E2899FC00D40
:1006B000112460E082E00E944003CC2331F060E02E
:1006C00084E10E944003C150F8CFCF91089561E0CA
:1006D0000C944003CF93DF93EC018991882321F0A0
:1006E00061E00E944003F9CFDF91CF910895CF934D
:1006F000DF93CDB7DEB72E970FB6F894DEBF0FBEEF
:10070000CDBFFC012781222341F027E0DE011196B5
:1007100001900D922A95E1F715C027E0FC01DE015A
:10072000189601900D922A95E1F7FC018481845F6F
:100730008C8787E0FE013896DE01119601900D92BC
:100740008A95E1F729813A814B815C816D817E81B7
:100750008F8190E02E960FB6F894DEBF0FBECDBF0E
:10076000DF91CF910895CF93DF93CDB7DEB7609738
:100770000FB6F894DEBF0FBECDBFFC01948187E0B9
:10078000DE01199601900D928A95E1F79C3010F4E4
:1007900081E004C09C3009F09C5080E09D87888BEC
:1007A00088E0FE013996DE01119601900D928A953E
:1007B000E1F729813A814B815C816D817E818F8156
:1007C000988560960FB6F894DEBF0FBECDBFDF915F
:1007D000CF910895CF92DF92EF92FF920F931F93E4
:1007E000CF93DF93CDB7DEB761970FB6F894DEBF36
:1007F0000FBECDBF8C0160E080E00E945303F80182
:1008000083811F928F9382811F928F9381818F9317
:1008100080818F9384EA90E09F938F93CE0101961D
:100820007C019F938F930E94B405C7010E946A03C5
:100830000FB6F894DEBF0FBECDBFF80187818111DE
:1008400005C091EAC92E90E0D92E04C08EE9C82EC9
:1008500080E0D82E60E081E00E945303DF92CF92C7
:10086000F80186811F928F9385811F928F938481D7
:100870001F928F9383EB90E09F938F93FF92EF9261
:100880000E94B405C7010E946A030FB6F894DEBF48
:100890000FBECDBF61960FB6F894DEBF0FBECDBFC1
:1008A000DF91CF911F910F91FF90EF90DF90CF904C
:1008B0000895CF92EF920F93FC017183608342837E
:1008C00023830483E582C6820F91EF90CF90089531
:1008D000AF92CF92EF920F93FC01718360834283BA
:1008E00023830483E582C682A7820F91EF90CF9085
:1008F000AF9008959C0160E971E00E94A005892BEA
:1009000069F0C90164E670E00E94A005892B41F0FE
:100910002370332781E0232B21F002C081E008956A
:1009200080E00895FB019F01261B370B2417350734
:100930002CF491919813F7CF81E0089580E0089509
:100940000F931F93CF93C82F8B0144E050E06CECC2
:1009500070E00E949204811112C047E050E065EC03
:1009600070E08C2F0E94920481110BC0C23059F4A8
:10097000C8010E947A04811108C08CE107C08EE191
:1009800005C08FE103C080E001C08DE1CF911F91D0
:100990000F910895EF92FF920F931F93CF93DF93E0
:1009A000EC018E818F5F8E838C3331F58D818F5F6B
:1009B0008D831E828C3301F58C818F5F8C831D8229
:1009C0008831D1F40B810F5F0B831C82E880F980A2
:1009D0001A81B701812F0E94A004801768F481E07A
:1009E0008B831C3019F01F5F1A8306C08A838FEF38
:1009F000E81AF80AF982E882DF91CF911F910F91EE
:100A0000FF90EF900895DF92EF92FF920F931F9364
:100A1000CF93DF93FC0186818F5F86838C3369F5EA
:100A200085818F5F858316828C3339F584818F5F52
:100A3000848315828C3009F58781882311F0178211
:100A40001CC0EF01DD24D394D78203810F5F0383A1
:100A5000E080F1801281B701812F0E94A0048017ED
:100A600060F4DB821C3019F01F5F1A8306C0DA8243
:100A70008FEFE81AF80AF982E882DF91CF911F918F
:100A80000F91FF90EF90DF900895CF92DF92EF9259
:100A9000FF920F931F93CF93DF93CDB7DEB761978C
:100AA0000FB6F894DEBF0FBECDBF8C0160E080E0D2
:100AB0000E945303F80183811F928F9382811F92BA
:100AC0008F9381818F9380818F9384EAC82E80E0F9
:100AD000D82EDF92CF92CE0101967C019F938F9307
:100AE0000E94B405C7010E946A0360E081E00E9491
:100AF0005303F80186811F928F9385811F928F93F4
:100B000084811F928F93DF92CF92FF92EF920E9487
:100B1000B405C7010E946A030FB6F894DEBF0FBE8A
:100B2000CDBF61960FB6F894DEBF0FBECDBFDF918B
:100B3000CF911F910F91FF90EF90DF90CF9008958C
:100B4000AA1BBB1B51E107C0AA1FBB1FA617B707F3
:100B500010F0A61BB70B881F991F5A95A9F780950F
:100B60009095BC01CD010895AEE0B0E0EAEBF5E070
:100B70000C9475080D891E8986E08C831A8309837D
:100B80008FEF9FE79E838D83AE01475E5F4F6F8936
:100B9000788DCE0101960E94D605EF81F885E00F91
:100BA000F11F10822E96E4E00C949108ABE0B0E0C7
:100BB000ECEDF5E00C9467086C017B018A01FC0107
:100BC00017821682838181FFCCC1CE0101963C0140
:100BD000F6019381F70193FD859193FF81917F0148
:100BE000882309F4BAC1853239F493FD859193FFC6
:100BF00081917F01853229F4B60190E00E94CD07F2
:100C0000E7CF912C212C312CFFE1F315D8F08B325A
:100C100079F038F4803279F08332A1F4232D206109
:100C20001DC08D3261F0803369F4232D216016C020
:100C3000832D8260382EE32DE4603E2E2AC0F32DF2
:100C4000F8601DC037FC2DC020ED280F2A3040F081
:100C50008E32B9F436FC81C1232D2064322E19C0A6
:100C600036FE06C08AE0989E200D1124922E11C0F7
:100C7000EAE02E9E200D1124222EF32DF0623F2E4D
:100C800008C08C3621F4832D8068382E02C0883647
:100C900041F4F70193FD859193FF81917F018111CB
:100CA000B3CF982F9F7D9554933028F40C5F1F4F3E
:100CB0009FE399830DC0833631F0833771F083351C
:100CC00009F059C021C0F801808189830E5F1F4F50
:100CD00088248394912C530113C02801F2E04F0E15
:100CE000511CF801A080B18036FE03C0692D70E070
:100CF00002C06FEF7FEFC5010E94C2074C01820165
:100D0000F32DFF773F2E16C0280122E0420E511C22
:100D1000F801A080B18036FE03C0692D70E002C0EA
:100D20006FEF7FEFC5010E94B7074C01F32DF0680C
:100D30003F2E820133FC1BC0822D90E0881699065D
:100D4000B0F4B60180E290E00E94CD072A94F4CF7F
:100D5000F50137FC859137FE81915F01B60190E086
:100D60000E94CD0721102A9421E0821A9108811453
:100D7000910471F7E8C0843611F0893641F5F80125
:100D800037FE07C060817181828193810C5F1F4FA4
:100D900008C060817181072E000C880B990B0E5FD3
:100DA0001F4FF32DFF763F2E97FF09C0909580953A
:100DB000709561957F4F8F4F9F4FF0683F2E2AE0CF
:100DC00030E0A3010E940908882E861845C08537A7
:100DD00031F4232D2F7EB22E2AE030E025C0932D52
:100DE000997FB92E8F36C1F018F4883579F0B5C0E7
:100DF000803719F0883721F0B0C0E92FE061BE2EAE
:100E0000B4FE0DC0FB2DF460BF2E09C034FE0AC035
:100E1000292F2660B22E06C028E030E005C020E170
:100E200030E002C020E132E0F801B7FE07C0608187
:100E30007181828193810C5F1F4F06C06081718137
:100E400080E090E00E5F1F4FA3010E940908882EEA
:100E50008618FB2DFF773F2E36FE0DC0232D2E7FEB
:100E6000A22E891458F434FE0BC032FC09C0832D25
:100E70008E7EA82E05C0B82CA32C03C0B82C01C0B0
:100E8000B92CA4FE0FC0FE01E80DF11D8081803356
:100E900021F49A2D997EA92E09C0A2FE06C0B39412
:100EA000B39404C08A2D867809F0B394A3FC11C0D2
:100EB000A0FE06C0B21488F4280C922C9B180EC019
:100EC000B21460F4B60180E290E00E94CD07B394C2
:100ED000F7CFB21418F42B1802C0982C212CA4FEC2
:100EE00010C0B60180E390E00E94CD07A2FE17C0BB
:100EF000A1FC03C088E790E002C088E590E0B6015D
:100F00000CC08A2D867859F0A1FE02C08BE201C088
:100F100080E2A7FC8DE2B60190E00E94CD07891423
:100F200038F4B60180E390E00E94CD079A94F7CFA1
:100F30008A94F301E80DF11D8081B60190E00E94D2
:100F4000CD078110F5CF222009F442CEB60180E210
:100F500090E00E94CD072A94F6CFF6018681978112
:100F600002C08FEF9FEF2B96E2E10C948308FC0107
:100F70000590615070400110D8F7809590958E0FC4
:100F80009F1F0895FC016150704001900110D8F737
:100F9000809590958E0F9F1F08950F931F93CF9369
:100FA000DF93FB01238121FD03C08FEF9FEF2CC056
:100FB00022FF16C04681578124813581421753078D
:100FC00044F4A081B1819D012F5F3F4F3183208385
:100FD0008C93268137812F5F3F4F3783268314C040
:100FE0008B01EC01FB010084F185E02D0995892B33
:100FF000E1F6D80116968D919C9117970196179658
:101000009C938E931697CE01DF91CF911F910F91F4
:101010000895FA01AA27283051F1203181F1E8948E
:101020006F936E7F6E5F7F4F8F4F9F4FAF4FB1E0DB
:101030003ED0B4E03CD0670F781F891F9A1FA11DD6
:10104000680F791F8A1F911DA11D6A0F711D811DD7
:10105000911DA11D20D009F468943F912AE0269F9C
:1010600011243019305D3193DEF6CF010895462FFB
:101070004770405D4193B3E00FD0C9F7F6CF462FDC
:101080004F70405D4A3318F0495D31FD4052419345
:1010900002D0A9F7EACFB4E0A69597958795779502
:1010A0006795BA95C9F700976105710508959B0189
:1010B000AC010A2E06945795479537952795BA9512
:1010C000C9F7620F731F841F951FA01D08952F92EB
:1010D0003F924F925F926F927F928F929F92AF92C8
:1010E000BF92CF92DF92EF92FF920F931F93CF9315
:1010F000DF93CDB7DEB7CA1BDB0B0FB6F894DEBFAC
:101100000FBECDBF09942A88398848885F846E84D1
:101110007D848C849B84AA84B984C884DF80EE801B
:10112000FD800C811B81AA81B981CE0FD11D0FB624
:10113000F894DEBF0FBECDBFED010895F894FFCF48
:1011400079722F6D6D2F643A0068722F6D696E2F62
:10115000733A0031323334000406090B00003100C9
:1011600032003300410034003500360042003700C1
:101170003800390043002A00300023004400616D2C
:1011800000706D00253034642D253032642D2530FB
:10119000326400253032643A253032643A253032E8
:1011A000642025730001030507080A0C0406090BD7
:00000001FF
